{
  "contractName": "Try",
  "abi": [
    {
      "constant": true,
      "inputs": [],
      "name": "id",
      "outputs": [
        {
          "name": "",
          "type": "uint64"
        }
      ],
      "payable": false,
      "stateMutability": "view",
      "type": "function",
      "signature": "0xaf640d0f"
    },
    {
      "constant": false,
      "inputs": [
        {
          "name": "_id",
          "type": "uint64"
        }
      ],
      "name": "setId",
      "outputs": [],
      "payable": false,
      "stateMutability": "nonpayable",
      "type": "function",
      "signature": "0xd1371961"
    },
    {
      "constant": true,
      "inputs": [],
      "name": "getId",
      "outputs": [
        {
          "name": "",
          "type": "uint64"
        }
      ],
      "payable": false,
      "stateMutability": "view",
      "type": "function",
      "signature": "0x5d1ca631"
    }
  ],
  "bytecode": "0x608060405234801561001057600080fd5b5061019e806100206000396000f300608060405260043610610057576000357c0100000000000000000000000000000000000000000000000000000000900463ffffffff1680635d1ca6311461005c578063af640d0f1461009b578063d1371961146100da575b600080fd5b34801561006857600080fd5b50610071610111565b604051808267ffffffffffffffff1667ffffffffffffffff16815260200191505060405180910390f35b3480156100a757600080fd5b506100b061012e565b604051808267ffffffffffffffff1667ffffffffffffffff16815260200191505060405180910390f35b3480156100e657600080fd5b5061010f600480360381019080803567ffffffffffffffff169060200190929190505050610147565b005b60008060009054906101000a900467ffffffffffffffff16905090565b6000809054906101000a900467ffffffffffffffff1681565b806000806101000a81548167ffffffffffffffff021916908367ffffffffffffffff160217905550505600a165627a7a72305820ce91d0b858d02c0c973225edce1d6d4ab6c85e262a8b374d79288412cb34c2ea0029",
  "source": "pragma solidity ^0.4.23;\n\ncontract Try {\n  uint64 public id;\n\n  function setId(uint64 _id) public {\n    id = _id;\n  }\n\n  function getId() public view returns(uint64){\n    return id;\n  }\n}\n",
  "sourcePath": "/home/liyuankun/learn/go-test/smc/contracts/Try.sol",
  "compiler": {
    "name": "solc",
    "version": "0.4.25+commit.59dbf8f1.Emscripten.clang"
  },
  "schemaVersion": "3.0.0-beta.1",
  "updatedAt": "2018-10-22T07:54:43.688Z"
}